{
  "_format": "hh-sol-artifact-1",
  "contractName": "HotdogModelVerifier",
  "sourceName": "contracts/HotdogModelVerifier.sol",
  "abi": [
    {
      "inputs": [
        {
          "internalType": "uint256[2]",
          "name": "a",
          "type": "uint256[2]"
        },
        {
          "internalType": "uint256[2][2]",
          "name": "b",
          "type": "uint256[2][2]"
        },
        {
          "internalType": "uint256[2]",
          "name": "c",
          "type": "uint256[2]"
        },
        {
          "internalType": "uint256[2]",
          "name": "input",
          "type": "uint256[2]"
        }
      ],
      "name": "verifyProof",
      "outputs": [
        {
          "internalType": "bool",
          "name": "r",
          "type": "bool"
        }
      ],
      "stateMutability": "view",
      "type": "function"
    }
  ],
  "bytecode": "0x608060405234801561001057600080fd5b5061134a806100206000396000f3fe608060405234801561001057600080fd5b506004361061002b5760003560e01c8063f5c9d69e14610030575b600080fd5b61018f600480360361014081101561004757600080fd5b8101908080604001906002806020026040519081016040528092919082600260200280828437600081840152601f19601f82011690508083019250505050505091929192908060800190600280602002604051908101604052809291906000905b828210156100fc578382604002016002806020026040519081016040528092919082600260200280828437600081840152601f19601f820116905080830192505050505050815260200190600101906100a8565b50505050919291929080604001906002806020026040519081016040528092919082600260200280828437600081840152601f19601f820116905080830192505050505050919291929080604001906002806020026040519081016040528092919082600260200280828437600081840152601f19601f82011690508083019250505050505091929192905050506101a9565b604051808215151515815260200191505060405180910390f35b60006101b36111d2565b6040518060400160405280876000600281106101cb57fe5b60200201518152602001876001600281106101e257fe5b60200201518152508160000181905250604051806040016040528060405180604001604052808860006002811061021557fe5b602002015160006002811061022657fe5b602002015181526020018860006002811061023d57fe5b602002015160016002811061024e57fe5b6020020151815250815260200160405180604001604052808860016002811061027357fe5b602002015160006002811061028457fe5b602002015181526020018860016002811061029b57fe5b60200201516001600281106102ac57fe5b602002015181525081525081602001819052506040518060400160405280856000600281106102d757fe5b60200201518152602001856001600281106102ee57fe5b602002015181525081604001819052506060600267ffffffffffffffff8111801561031857600080fd5b506040519080825280602002602001820160405280156103475781602001602082028036833780820191505090505b50905060008090505b600281101561038f5784816002811061036557fe5b602002015182828151811061037657fe5b6020026020010181815250508080600101915050610350565b50600061039c82846103bc565b14156103ad576001925050506103b4565b6000925050505b949350505050565b6000807f30644e72e131a029b85045b68181585d2833e84879b9709143e1f593f000000190506103ea611205565b6103f26105f0565b9050806080015151600186510114610472576040517f08c379a00000000000000000000000000000000000000000000000000000000081526004018080602001828103825260128152602001807f76657269666965722d6261642d696e707574000000000000000000000000000081525060200191505060405180910390fd5b61047a61124c565b6040518060400160405280600081526020016000815250905060008090505b865181101561057957838782815181106104af57fe5b60200260200101511061052a576040517f08c379a000000000000000000000000000000000000000000000000000000000815260040180806020018281038252601f8152602001807f76657269666965722d6774652d736e61726b2d7363616c61722d6669656c640081525060200191505060405180910390fd5b61056a826105658560800151600185018151811061054457fe5b60200260200101518a858151811061055857fe5b6020026020010151610a55565b610b50565b91508080600101915050610499565b5061059c81836080015160008151811061058f57fe5b6020026020010151610b50565b90506105d26105ae8660000151610c6a565b8660200151846000015185602001518587604001518b604001518960600151610d04565b6105e257600193505050506105ea565b600093505050505b92915050565b6105f8611205565b60405180604001604052807f2d4d9aa7e302d9df41749d5507949d05dbea33fbb16c643b22f599a2be6df2e281526020017f14bedd503c37ceb061d8ec60209fe345ce89830a19230301f076caff004d19268152508160000181905250604051806040016040528060405180604001604052807f0967032fcbf776d1afc985f88877f182d38480a653f2decaa9794cbc3bf3060c81526020017f0e187847ad4c798374d0d6732bf501847dd68bc0e071241e0213bc7fc13db7ab815250815260200160405180604001604052807f304cfbd1e08a704a99f5e847d93f8c3caafddec46b7a0d379da69a4d112346a781526020017f1739c1b1a457a8c7313123d24d2f9192f896b7c63eea05a9d57f06547ad0cec88152508152508160200181905250604051806040016040528060405180604001604052807f198e9393920d483a7260bfb731fb5d25f1aa493335a9e71297e485b7aef312c281526020017f1800deef121f1e76426a00665e5c4479674322d4f75edadd46debd5cd992f6ed815250815260200160405180604001604052807f090689d0585ff075ec9e99ad690c3395bc4b313370b38ef355acdadcd122975b81526020017f12c85ea5db8c6deb4aab71808dcb408fe3d1e7690c43d37b4ce6cc0166fa7daa8152508152508160400181905250604051806040016040528060405180604001604052807f2eb383df7593ed1c998bc6a15a9148614c469cf42500f86665ec8e2321a1621b81526020017f174973209c6056e3cbd6ebceb85bd300dcab82d28022c3edae8337c715071987815250815260200160405180604001604052807f12394198ce5ddc89ef9b51aaa473e1601a9816bd1b34b62984d679d6cf732bef81526020017f26e9f13ec048aad35ffdb5323a755b977461f2ea9c0f141bde22d19aa9547fc68152508152508160600181905250600367ffffffffffffffff811180156108bc57600080fd5b506040519080825280602002602001820160405280156108f657816020015b6108e361124c565b8152602001906001900390816108db5790505b50816080018190525060405180604001604052807f03eeb43367e8ad39967bd6667e3b475ea73a126f3b944449badff47d1b76026d81526020017f2e14c028220875ab97a95fed5407ec75a26a518c7ce260af6fae2bc90fe426f0815250816080015160008151811061096557fe5b602002602001018190525060405180604001604052807f1f59b60021af05bfb9f65be0ae9c80c3fe51dbc6d746632b86eedb063425639b81526020017f2ff7408d2d5295e87306fea9940d0018c61ca8f490607fa3499a98de2667e86f81525081608001516001815181106109d657fe5b602002602001018190525060405180604001604052807f2c87a59a3ea5cde6686e84f89d76cb390e636d0c6d06d7b533fffdc30dfe79e481526020017f22c5317d441d07c1dc3012eee3620f96db2f1a23095202911bbe9a21b44e57608152508160800151600281518110610a4757fe5b602002602001018190525090565b610a5d61124c565b610a65611266565b836000015181600060038110610a7757fe5b602002018181525050836020015181600160038110610a9257fe5b6020020181815250508281600260038110610aa957fe5b602002018181525050600060608360808460076107d05a03fa90508060008114610ad257610ad4565bfe5b5080610b48576040517f08c379a00000000000000000000000000000000000000000000000000000000081526004018080602001828103825260128152602001807f70616972696e672d6d756c2d6661696c6564000000000000000000000000000081525060200191505060405180910390fd5b505092915050565b610b5861124c565b610b60611288565b836000015181600060048110610b7257fe5b602002018181525050836020015181600160048110610b8d57fe5b602002018181525050826000015181600260048110610ba857fe5b602002018181525050826020015181600360048110610bc357fe5b602002018181525050600060608360c08460066107d05a03fa90508060008114610bec57610bee565bfe5b5080610c62576040517f08c379a00000000000000000000000000000000000000000000000000000000081526004018080602001828103825260128152602001807f70616972696e672d6164642d6661696c6564000000000000000000000000000081525060200191505060405180910390fd5b505092915050565b610c7261124c565b60007f30644e72e131a029b85045b68181585d97816a916871ca8d3c208c16d87cfd47905060008360000151148015610caf575060008360200151145b15610cd3576040518060400160405280600081526020016000815250915050610cff565b60405180604001604052808460000151815260200182856020015181610cf557fe5b0683038152509150505b919050565b60006060600467ffffffffffffffff81118015610d2057600080fd5b50604051908082528060200260200182016040528015610d5a57816020015b610d4761124c565b815260200190600190039081610d3f5790505b5090506060600467ffffffffffffffff81118015610d7757600080fd5b50604051908082528060200260200182016040528015610db157816020015b610d9e6112aa565b815260200190600190039081610d965790505b5090508a82600081518110610dc257fe5b60200260200101819052508882600181518110610ddb57fe5b60200260200101819052508682600281518110610df457fe5b60200260200101819052508482600381518110610e0d57fe5b60200260200101819052508981600081518110610e2657fe5b60200260200101819052508781600181518110610e3f57fe5b60200260200101819052508581600281518110610e5857fe5b60200260200101819052508381600381518110610e7157fe5b6020026020010181905250610e868282610e96565b9250505098975050505050505050565b60008151835114610f0f576040517f08c379a00000000000000000000000000000000000000000000000000000000081526004018080602001828103825260168152602001807f70616972696e672d6c656e677468732d6661696c65640000000000000000000081525060200191505060405180910390fd5b600083519050600060068202905060608167ffffffffffffffff81118015610f3657600080fd5b50604051908082528060200260200182016040528015610f655781602001602082028036833780820191505090505b50905060008090505b8381101561110b57868181518110610f8257fe5b602002602001015160000151826000600684020181518110610fa057fe5b602002602001018181525050868181518110610fb857fe5b602002602001015160200151826001600684020181518110610fd657fe5b602002602001018181525050858181518110610fee57fe5b60200260200101516000015160006002811061100657fe5b602002015182600260068402018151811061101d57fe5b60200260200101818152505085818151811061103557fe5b60200260200101516000015160016002811061104d57fe5b602002015182600360068402018151811061106457fe5b60200260200101818152505085818151811061107c57fe5b60200260200101516020015160006002811061109457fe5b60200201518260046006840201815181106110ab57fe5b6020026020010181815250508581815181106110c357fe5b6020026020010151602001516001600281106110db57fe5b60200201518260056006840201815181106110f257fe5b6020026020010181815250508080600101915050610f6e565b506111146112d0565b6000602082602086026020860160086107d05a03fa905080600081146111395761113b565bfe5b50806111af576040517f08c379a00000000000000000000000000000000000000000000000000000000081526004018080602001828103825260158152602001807f70616972696e672d6f70636f64652d6661696c6564000000000000000000000081525060200191505060405180910390fd5b6000826000600181106111be57fe5b602002015114159550505050505092915050565b60405180606001604052806111e561124c565b81526020016111f26112aa565b81526020016111ff61124c565b81525090565b6040518060a0016040528061121861124c565b81526020016112256112aa565b81526020016112326112aa565b815260200161123f6112aa565b8152602001606081525090565b604051806040016040528060008152602001600081525090565b6040518060600160405280600390602082028036833780820191505090505090565b6040518060800160405280600490602082028036833780820191505090505090565b60405180604001604052806112bd6112f2565b81526020016112ca6112f2565b81525090565b6040518060200160405280600190602082028036833780820191505090505090565b604051806040016040528060029060208202803683378082019150509050509056fea264697066735822122049aef8d9e168caa978582186f8073790b667a215098c0dce0dd7df23f0c3d60664736f6c634300060b0033",
  "linkReferences": {},
  "deployedLinkReferences": {}
}